:1012390054656D703A200020000D0A004176672E32
:101249002054656D703A200054454D502052414E4E
:10125900474520414C455254000D0A2A0041766702
:101269002E2054656D703A200054454D502052414E
:0A1279004E474520414C45525400F9
:1012C500C102C101C1000223000020283000000036
:1012D5000000000000000000000000000000000009
:1012E50000000000000000000000000000000000F9
:1012F500000000000002210000052900002E00006A
:10136700758920758DF3759850D28ED2ACD2AF2285
:08139D008F993002FDC202220B
:061306007B007A0079294A
:10130C008B698A6A896BAB69AA6AA96B120BD66066
:10131C0013056BE56B7002056A14F9120BD6FF12FC
:05132C00139D80E22288
:09139300E4FF3001FDC201AF9935
:01139C00222E
:030023000213774E
:10137700309905C299D20232309804C298D201320C
:0C13870075C33F43B104D2AF43C3402202
:0811DD008F788E778D768C75FA
:1011E500C2007810120CCEE48FC53000FDA958C29C
:1011F50000AF78AE77AD76AC757808120CCE8FC59A
:101205003000FDAB58C200E578FF8FC53000FDAD5D
:1012150058EB7B00FA7E00E97810C333CE33CED885
:10122500F92BFFEE3AFE7C00EF2DFFEC3EFE3395E9
:03123500E0FDFCDD
:011238002293
:03004B000213514C
:10135100C0E0C0D0E5C454F02480700585C558D2E2
:0613610000D0D0D0E03204
:0313A500D29422BD
:02117800AB07C3
:10117A00E4F570F56F756E01F56DEF75F010A47EEC
:10118A00005470FFEE3395E0FDFCEF4480FFED78EC
:10119A0008120CE18F748E738D728C71E570257450
:1011AA00FFE56F3573FEE56E3572FDE56D3571FC51
:1011BA00C2941211DD8F6C8E6B8D6A8C69D294E5A4
:1011CA006CF56CE56B5403F56BE4F56AF569AE6B87
:0211DA00AF6CF8
:0111DC0022F0
:10110500AB5CAA5BA95AA859E4FFFE7D207C41127D
:0B11150008F8120B557B007A007929C6
:101120008E698F6A8B6B8A6C896D7C007D64120C72
:1011300035EF2430120BEFAE69AF6A7C007D64128C
:101140000C357E007F0ACFCDCFCECCCE120C35EF42
:101150002430AB6BAA6CA96D900001120C01AE6932
:10116000AF6A7C007D0A120C35ED2430AB6BAA6CA3
:08117000A96D900003020C01BF
:10133100E4FDFCC3ED9FEC9E5015E4FBFA0BBB00F2
:0F134100010ABA01F8BB7EF50DBD00010C80E476
:01135000227A
:060FAE008B698A6A896B61
:100FB400756C00756D0AE4F571F570F56FF56EF5F5
:100FC40072F573F574F575F579F578F577F576F5C9
:100FD40074F575C3E575956DE574956C5073AF71D3
:100FE400AE70AD6FAC6EC004C005C006C007AE7471
:100FF400E5757802C333CE33CED8F9AB69AA6AA9B2
:101004006BF5828E83120D24D007D006D005D00450
:101014001208078F718E708D6F8C6EAE74E57578C3
:1010240002C333CE33CED8F9AB69AA6AA96BF58271
:101034008E83120CF4E4FBFAF9F8120A9E70080588
:1010440073E573700205720575E575708605748025
:1010540082AC6CAD6DE4120B1CA804A905AA06AB06
:1010640007AF71AE70AD6FAC6E120A018F798E78D6
:041074008D778C7672
:011078002255
:08128300AB07AA068D828C83E3
:10128B007E017FF4AD03AC02120C358E698F6AAE12
:10129B0002AF03AC83AD82120C238F828E83D2807C
:1012AB00E58245836013AF6AAE69121331B280E5F4
:0912BB0082158270EB158380E7B7
:0112C4002207
:100DCA00E4F55DF55EF55FF560F564F563F562F5EA
:100DDA0061F568F567F566F5651213871213A512B2
:100DEA00136785646885636785626685616585289A
:100DFA00648527638526628525617F07121178AD90
:100E0A0007AC06E4120B1C7B357A2979A5783E12C9
:100E1A0008F88F288E278D268C25E52225E025E0E7
:100E2A002430F8120D54E560455F7070FB7A007942
:100E3A0030120FAE8F5C8E5B8D5A8C59E4FFFEFD2B
:100E4A007C40AB5CAA5BA95AA859120807AB28AA2E
:100E5A0027A926A825120A9E600840067F01C00716
:100E6A0080047F00C007E4FFFEFD7CC0AB5CAA5B88
:100E7A00A95AA859120807AB28AA27A926A82512F1
:100E8A000A9E50047E0180027E00D0E04E60087502
:100E9A005D00755E018005E4F55DF55EE55D600364
:100EAA00020F97E55E147003020F41046003020FFC
:100EBA00977BFF7A12793912130CAB28AA27A92635
:100ECA00A82512110D1213067BFF7A12794012130C
:100EDA000CE4FFFE7D207C41AB64AA63A962A86191
:100EEA001211141213067BFF7A12794012130CE4C2
:100EFA00FFFE7D207C41AB68AA67A966A86512112E
:100F0A00141213067BFF7A12794212130C1211057E
:100F1A007BFF7A12794512130C1213067BFF7A12A1
:100F2A00794212130C7BFF7A12794212130C7FE872
:100F3A007E031213318056E560455F70337BFF7A7A
:100F4A0012795112130C7BFF7A12796212130C1266
:100F5A0011057BFF7A12794512130C1213067BFFD7
:100F6A007A12796212130C7BFF7A12796212130CCD
:100F7A007D017C007FFA7E001212830560E56070B5
:100F8A0002055F6404455F7004F55FF560E522249D
:100F9A0001FFE43521FE7C007D0A120C8A8C218D2A
:040FAA0022020DEC26
:10080000020BC1E86480F8E933E83360110460F05A
:10081000ED33EC337009E8FCE9FDEAFEEBFF22045E
:1008200060DED3EB9FEA9EE99DE8C2E78CF0C2F759
:1008300095F0400CE8CCF8E9CDF9EACEFAEBCFFB25
:10084000120B8C85D0F05804700320D5B3E80470E7
:10085000075002B2D5020BCB92D5EC0460F7E4CC82
:10086000C0E0C398F8603B94186008400DD0E0FBEE
:10087000020BA3E4FBFAC9FC8028E830E406E4C9D3
:10088000FBE4CAFCE830E305E4C9CACBFCE8540742
:100890006010F8C3E913F9EA13FAEB13FBEC13FC4D
:1008A000D8F130F52FC3E49CFCEF9BFFEE9AFEEDF0
:1008B00099FDD0E0FBEF4E4D4C701222DB03020B92
:1008C000C8EC2CFCEF33FFEE33FEED33FDED30E7EB
:1008D000EB020BA3EF2BFFEE3AFEED39FDD0E0FB70
:1008E00050130BBB0003020BCBED13FDEE13FEEF19
:0808F00013FFEC13FC020BA343
:1008F800EC4D6011E8497017ED33EC3304600DE4FA
:10090800FCFFFEFD22E933E8330470F8020BC11244
:100918000B8C58046009E4CC248150062850090245
:100928000BCB284003020BC8C0E0EB4A7044B980E7
:1009380006D0E0FB020BB7EF4E701CBD8008EBFF42
:10094800EAFEE9FD80EBE98DF0A4FEE5F00209E19D
:10095800E9CDF9EAFEEBFFEF89F0A4FCE5F0CE89DA
:10096800F0A42EFFE435F0CD89F0A42DFEE435F097
:100978008067EF4E7005BD80D780C3EF8BF0A4ACC5
:10098800F0EE8BF0A42CFCE435F0F8EF8AF0A42C00
:10099800E5F038FCE433CB8DF0A42CFCE5F03BF813
:1009A800EE8AF0A42CFCE5F038F8E433CF89F0A403
:1009B8002CFCE5F038CF3400CE89F0A42FFFE5F009
:1009C8003EFEE433C98DF0A42EFEE5F039CD8AF061
:1009D800A42FFFE5F03EFEE43DFD33D0E0FB5007D9
:1009E8000BBB000F020BCBEC2CFCEF33FFEE33FEFE
:0609F800ED33FD020BA32C
:1009FE00020BCBEC5D046005E859047003020BC1D9
:100A0E00120B8C580460F6EC4860F2EC7004FDFE9C
:100A1E00FF22C860DB2481C85009C39860025006CB
:100A2E00020BC89850CAF582E9294B4A7005AB8271
:100A3E00020BB775F0007C1A7880C3EF9BEE9AED2F
:100A4E0099400DC3EF9BFFEE9AFEED99FDE842F043
:100A5E00DC23ACF0D0E0FFD0E0FED0E0FDAB822096
:100A6E00E7101BEB60BAEC2CFCEF33FFEE33FEED20
:100A7E0033FD020BA3E803F830E705C0F075F00074
:100A8E00EF2FFFEE33FEED33FD40B830E7C280AA04
:100A9E0074F8CC6480CCC86480C8F58204604FC3FF
:100AAE00EB9FF5F0EA9E42F0E99D42F0E89C45F09E
:100ABE00603C501DE5825FFFE582D313CB5BCBF428
:100ACE002B5582FB50280ABA002409B90020088051
:100ADE001DE5825BFBE582D313CF5FCFF4C3132FEB
:100AEE005582FF50090EBE00050DBD00010CC3EB73
:100AFE009FF5F0EA9E42F0E99D42F0E89C45F060D9
:090B0E0007CC4820E701B3EC22FA
:100B170075F020800E75F010800575F0087D007E59
:100B2700007F003392D530D503120CC0EC33401050
:100B3700EF33FFEE33FEED33FDEC33FCD5F0ED2262
:0E0B4700E5F0247EA2D513CC92E7CDCEFF229E
:100B5500EDD2E7CD33EC3392D524814006E4FFFE98
:100B6500FDFC22FCE4CFCECDCC24E0501174FF80F7
:100B7500EDC3CC13CCCD13CDCE13CECF13CF047094
:070B8500F030D5DE020CC0C8
:100B8C00E9D2E7C933E833F892D5EDD2E7CD33ECAF
:070B9C0033FC5002B2D52228
:100BA300EC30E7100FBF000C0EBE00080DBD0004B3
:100BB3000BEB6014A2D5EB13FCED92E7FD2274FF5F
:100BC300FCFDFEFF22E480F8A2D574FF13FC7D80B8
:030BD300E480EFCC
:0300000002107972
:0C107900787FE4F6D8FD7581790210C084
:100BD600BB010689828A83E0225002E722BBFE021D
:090BE600E32289828A83E4932250
:100BEF00BB010689828A83F0225002F722BBFE01E5
:020BFF00F322DF
:100C0100F8BB010DE58229F582E5833AF583E8F029
:100C1100225006E92582C8F622BBFE05E92582C8D5
:020C2100F222BD
:100C2300EF8DF0A4A8F0CF8CF0A428CE8DF0A42EE5
:020C3300FE229F
:100C3500BC000BBE0029EF8DF084FFADF022E4CCA3
:100C4500F875F008EF2FFFEE33FEEC33FCEE9DEC6C
:100C5500984005FCEE9DFE0FD5F0E9E4CEFD22EDB2
:100C6500F8F5F0EE8420D21CFEADF075F008EF2FFC
:100C7500FFED33FD4007985006D5F0F222C398FDED
:050C85000FD5F0EA228A
:100C8A00C2D5EC30E709B2D5E4C39DFDE49CFCEE85
:100C9A0030E715B2D5E4C39FFFE49EFE120C35C3BC
:100CAA00E49DFDE49CFC8003120C3530D507C3E4B7
:060CBA009FFFE49EFE22F4
:0E0CC000C3E49FFFE49EFEE49DFDE49CFC2245
:100CCE00E8600FECC313FCED13FDEE13FEEF13FF04
:030CDE00D8F12228
:100CE100E8600FEFC333FFEE33FEED33FDEC33FC71
:030CF100D8F12215
:100CF400BB010DE58229F582E5833AF583020D6C8B
:100D04005007E92582F8020D60BBFE07E92582F849
:100D1400020D78E58229F582E5833AF583020D8494
:100D2400BB010DE58229F582E5833AF583020DA125
:100D34005007E92582F8020D94BBFE07E92582F8E5
:100D4400020DADE58229F582E5833AF583020DBAF9
:0C0D5400ECF608EDF608EEF608EFF622CB
:10108500020DCAE493A3F8E493A34003F68001F2AA
:1010950008DFF48029E493A3F85407240CC8C3336C
:1010A500C4540F4420C8834004F456800146F6DF3B
:1010B500E4800B01020408102040809012C5E47EF4
:1010C500019360BCA3FF543F30E509541FFEE49330
:1010D500A360010ECF54C025E060A840B8E493A3F7
:1010E500FAE493A3F8E493A3C8C582C8CAC583CA22
:1010F500F0A3C8C582C8CAC583CADFE9DEE780BEDA
:0113050000E7
:0C0D6000E6FC08E6FD08E6FE08E6FF22BF
:0C0D6C00E0FCA3E0FDA3E0FEA3E0FF22FA
:0C0D7800E2FC08E2FD08E2FE08E2FF22B7
:100D8400E493FC740193FD740293FE740393FF22B5
:0D0D9400E6FB08E6F908E6FA08E6CBF822CF
:0C0DA100E0F8A3E0F9A3E0FAA3E0FB22D5
:0D0DAD00E2FB08E2F908E2FA08E2CBF822C6
:100DBA00E493F8740193F9740293FA740393FB228F
:00000001FF
